{
  "contractName": "Election",
  "abi": [
    {
      "inputs": [],
      "payable": false,
      "stateMutability": "nonpayable",
      "type": "constructor"
    },
    {
      "anonymous": false,
      "inputs": [
        {
          "indexed": true,
          "internalType": "uint256",
          "name": "candidateId",
          "type": "uint256"
        },
        {
          "indexed": false,
          "internalType": "string",
          "name": "name",
          "type": "string"
        }
      ],
      "name": "CandidateAdded",
      "type": "event"
    },
    {
      "anonymous": false,
      "inputs": [
        {
          "indexed": true,
          "internalType": "uint256",
          "name": "candidateId",
          "type": "uint256"
        }
      ],
      "name": "CandidateRemoved",
      "type": "event"
    },
    {
      "anonymous": false,
      "inputs": [],
      "name": "ElectionEnded",
      "type": "event"
    },
    {
      "anonymous": false,
      "inputs": [],
      "name": "ElectionReset",
      "type": "event"
    },
    {
      "anonymous": false,
      "inputs": [],
      "name": "ElectionStarted",
      "type": "event"
    },
    {
      "anonymous": false,
      "inputs": [
        {
          "indexed": true,
          "internalType": "address",
          "name": "moderator",
          "type": "address"
        }
      ],
      "name": "ModeratorAdded",
      "type": "event"
    },
    {
      "anonymous": false,
      "inputs": [
        {
          "indexed": true,
          "internalType": "address",
          "name": "moderator",
          "type": "address"
        }
      ],
      "name": "ModeratorRemoved",
      "type": "event"
    },
    {
      "anonymous": false,
      "inputs": [
        {
          "indexed": true,
          "internalType": "uint256",
          "name": "candidateId",
          "type": "uint256"
        },
        {
          "indexed": true,
          "internalType": "address",
          "name": "voter",
          "type": "address"
        }
      ],
      "name": "VotedEvent",
      "type": "event"
    },
    {
      "anonymous": false,
      "inputs": [
        {
          "indexed": true,
          "internalType": "address",
          "name": "voter",
          "type": "address"
        }
      ],
      "name": "VoterRegistered",
      "type": "event"
    },
    {
      "constant": true,
      "inputs": [],
      "name": "admin",
      "outputs": [
        {
          "internalType": "address",
          "name": "",
          "type": "address"
        }
      ],
      "payable": false,
      "stateMutability": "view",
      "type": "function"
    },
    {
      "constant": true,
      "inputs": [
        {
          "internalType": "uint256",
          "name": "",
          "type": "uint256"
        }
      ],
      "name": "candidates",
      "outputs": [
        {
          "internalType": "uint256",
          "name": "id",
          "type": "uint256"
        },
        {
          "internalType": "string",
          "name": "name",
          "type": "string"
        },
        {
          "internalType": "uint256",
          "name": "voteCount",
          "type": "uint256"
        }
      ],
      "payable": false,
      "stateMutability": "view",
      "type": "function"
    },
    {
      "constant": true,
      "inputs": [],
      "name": "candidatesCount",
      "outputs": [
        {
          "internalType": "uint256",
          "name": "",
          "type": "uint256"
        }
      ],
      "payable": false,
      "stateMutability": "view",
      "type": "function"
    },
    {
      "constant": true,
      "inputs": [
        {
          "internalType": "address",
          "name": "",
          "type": "address"
        }
      ],
      "name": "moderators",
      "outputs": [
        {
          "internalType": "bool",
          "name": "",
          "type": "bool"
        }
      ],
      "payable": false,
      "stateMutability": "view",
      "type": "function"
    },
    {
      "constant": true,
      "inputs": [
        {
          "internalType": "address",
          "name": "",
          "type": "address"
        }
      ],
      "name": "voters",
      "outputs": [
        {
          "internalType": "bool",
          "name": "",
          "type": "bool"
        }
      ],
      "payable": false,
      "stateMutability": "view",
      "type": "function"
    },
    {
      "constant": false,
      "inputs": [
        {
          "internalType": "string",
          "name": "_name",
          "type": "string"
        }
      ],
      "name": "addCandidate",
      "outputs": [],
      "payable": false,
      "stateMutability": "nonpayable",
      "type": "function"
    },
    {
      "constant": false,
      "inputs": [
        {
          "internalType": "uint256",
          "name": "_candidateId",
          "type": "uint256"
        }
      ],
      "name": "removeCandidate",
      "outputs": [],
      "payable": false,
      "stateMutability": "nonpayable",
      "type": "function"
    },
    {
      "constant": false,
      "inputs": [
        {
          "internalType": "address",
          "name": "_voter",
          "type": "address"
        }
      ],
      "name": "registerVoter",
      "outputs": [],
      "payable": false,
      "stateMutability": "nonpayable",
      "type": "function"
    },
    {
      "constant": false,
      "inputs": [
        {
          "internalType": "uint256",
          "name": "_candidateId",
          "type": "uint256"
        }
      ],
      "name": "vote",
      "outputs": [],
      "payable": false,
      "stateMutability": "nonpayable",
      "type": "function"
    },
    {
      "constant": false,
      "inputs": [],
      "name": "endElection",
      "outputs": [],
      "payable": false,
      "stateMutability": "nonpayable",
      "type": "function"
    },
    {
      "constant": false,
      "inputs": [],
      "name": "resetElection",
      "outputs": [],
      "payable": false,
      "stateMutability": "nonpayable",
      "type": "function"
    },
    {
      "constant": false,
      "inputs": [
        {
          "internalType": "address",
          "name": "_moderator",
          "type": "address"
        }
      ],
      "name": "addModerator",
      "outputs": [],
      "payable": false,
      "stateMutability": "nonpayable",
      "type": "function"
    },
    {
      "constant": false,
      "inputs": [
        {
          "internalType": "address",
          "name": "_moderator",
          "type": "address"
        }
      ],
      "name": "removeModerator",
      "outputs": [],
      "payable": false,
      "stateMutability": "nonpayable",
      "type": "function"
    },
    {
      "constant": true,
      "inputs": [],
      "name": "getCandidateCount",
      "outputs": [
        {
          "internalType": "uint256",
          "name": "",
          "type": "uint256"
        }
      ],
      "payable": false,
      "stateMutability": "view",
      "type": "function"
    }
  ],
  "bytecode": "0x60806040523480156200001157600080fd5b5033600460006101000a81548173ffffffffffffffffffffffffffffffffffffffff021916908373ffffffffffffffffffffffffffffffffffffffff1602179055506001600560003373ffffffffffffffffffffffffffffffffffffffff1673ffffffffffffffffffffffffffffffffffffffff16815260200190815260200160002060006101000a81548160ff021916908315150217905550620000bd60016200024d60201b60201c565b7fc475c26aa25ed8e85a7faa790e5f63b5d7ee1025f12821f4c9bfddd36ab4d11260405160405180910390a16200012f6040518060400160405280600681526020017f5368616d696400000000000000000000000000000000000000000000000000008152506200027760201b60201c565b620001756040518060400160405280601381526020017f59616b6869796179657661204d61727a68616e000000000000000000000000008152506200027760201b60201c565b620001bb6040518060400160405280601281526020017f416b796c62656b204d656e6469626179657600000000000000000000000000008152506200027760201b60201c565b620002016040518060400160405280601181526020017f4164796c62656b6f7661205a68616e656c0000000000000000000000000000008152506200027760201b60201c565b620002476040518060400160405280600e81526020017f4d75737461666120416b65726b650000000000000000000000000000000000008152506200027760201b60201c565b6200066c565b8015620002665760016003541760038190555062000274565b600119600354166003819055505b50565b600460009054906101000a900473ffffffffffffffffffffffffffffffffffffffff1673ffffffffffffffffffffffffffffffffffffffff163373ffffffffffffffffffffffffffffffffffffffff16146040518060400160405280601381526020017f556e617574686f72697a6564206163636573730000000000000000000000000081525090620003a8576040517f08c379a00000000000000000000000000000000000000000000000000000000081526004018080602001828103825283818151815260200191508051906020019080838360005b838110156200036c5780820151818401526020810190506200034f565b50505050905090810190601f1680156200039a5780820380516001836020036101000a031916815260200191505b509250505060405180910390fd5b5060008151118015620003bd57506020815111155b6040518060400160405280602081526020017f496e76616c6964206e616d65206c656e6774682028302d333220636861727329815250906200049d576040517f08c379a00000000000000000000000000000000000000000000000000000000081526004018080602001828103825283818151815260200191508051906020019080838360005b838110156200046157808201518184015260208101905062000444565b50505050905090810190601f1680156200048f5780820380516001836020036101000a031916815260200191505b509250505060405180910390fd5b5060026000815480929190600101919050555060405180606001604052806002548152602001828152602001600081525060008060025481526020019081526020016000206000820151816000015560208201518160010190805190602001906200050a929190620005bd565b50604082015181600201559050506002547fe83b2a43e7e82d975c8a0a6d2f045153c869e111136a34d1889ab7b598e396a3826040518080602001828103825283818151815260200191508051906020019080838360005b838110156200057f57808201518184015260208101905062000562565b50505050905090810190601f168015620005ad5780820380516001836020036101000a031916815260200191505b509250505060405180910390a250565b828054600181600116156101000203166002900490600052602060002090601f016020900481019282601f106200060057805160ff191683800117855562000631565b8280016001018555821562000631579182015b828111156200063057825182559160200191906001019062000613565b5b50905062000640919062000644565b5090565b6200066991905b80821115620006655760008160009055506001016200064b565b5090565b90565b612593806200067c6000396000f3fe608060405234801561001057600080fd5b50600436106100ea5760003560e01c8063462e91ec1161008c578063a3ec138d11610066578063a3ec138d146103e5578063b532e4cb14610441578063e8f3052314610485578063f851a4401461048f576100ea565b8063462e91ec146102dc57806359f7846814610397578063869d785f146103a1576100ea565b80632d35a8a2116100c85780632d35a8a2146101a757806330a56347146101c55780633477ee2e146101e357806338db6dd314610298576100ea565b80630121b93f146100ef57806309e9d7e21461011d57806314d0f1ba1461014b575b600080fd5b61011b6004803603602081101561010557600080fd5b81019080803590602001909291905050506104d9565b005b6101496004803603602081101561013357600080fd5b8101908080359060200190929190505050610b32565b005b61018d6004803603602081101561016157600080fd5b81019080803573ffffffffffffffffffffffffffffffffffffffff169060200190929190505050610ec6565b604051808215151515815260200191505060405180910390f35b6101af610ee6565b6040518082815260200191505060405180910390f35b6101cd610eec565b6040518082815260200191505060405180910390f35b61020f600480360360208110156101f957600080fd5b8101908080359060200190929190505050610f53565b6040518084815260200180602001838152602001828103825284818151815260200191508051906020019080838360005b8381101561025b578082015181840152602081019050610240565b50505050905090810190601f1680156102885780820380516001836020036101000a031916815260200191505b5094505050505060405180910390f35b6102da600480360360208110156102ae57600080fd5b81019080803573ffffffffffffffffffffffffffffffffffffffff169060200190929190505050611015565b005b610395600480360360208110156102f257600080fd5b810190808035906020019064010000000081111561030f57600080fd5b82018360208201111561032157600080fd5b8035906020019184600183028401116401000000008311171561034357600080fd5b91908080601f016020809104026020016040519081016040528093929190818152602001838380828437600081840152601f19601f8201169050808301925050505050505091929192905050506113ac565b005b61039f6116e4565b005b6103e3600480360360208110156103b757600080fd5b81019080803573ffffffffffffffffffffffffffffffffffffffff16906020019092919050505061192f565b005b610427600480360360208110156103fb57600080fd5b81019080803573ffffffffffffffffffffffffffffffffffffffff169060200190929190505050611c61565b604051808215151515815260200191505060405180910390f35b6104836004803603602081101561045757600080fd5b81019080803573ffffffffffffffffffffffffffffffffffffffff169060200190929190505050611c81565b005b61048d611fb2565b005b61049761228f565b604051808273ffffffffffffffffffffffffffffffffffffffff1673ffffffffffffffffffffffffffffffffffffffff16815260200191505060405180910390f35b6104e16122b5565b15610554576040517f08c379a00000000000000000000000000000000000000000000000000000000081526004018080602001828103825260178152602001807f5265656e7472616e742063616c6c20646574656374656400000000000000000081525060200191505060405180910390fd5b61055e60016122c4565b806105676122ec565b6040518060400160405280601681526020017f456c656374696f6e206973206e6f74206163746976650000000000000000000081525090610643576040517f08c379a00000000000000000000000000000000000000000000000000000000081526004018080602001828103825283818151815260200191508051906020019080838360005b838110156106085780820151818401526020810190506105ed565b50505050905090810190601f1680156106355780820380516001836020036101000a031916815260200191505b509250505060405180910390fd5b50600160003373ffffffffffffffffffffffffffffffffffffffff1673ffffffffffffffffffffffffffffffffffffffff16815260200190815260200160002060009054906101000a900460ff16156040518060400160405280601481526020017f566f74657220616c7265616479206578697374730000000000000000000000008152509061076e576040517f08c379a00000000000000000000000000000000000000000000000000000000081526004018080602001828103825283818151815260200191508051906020019080838360005b83811015610733578082015181840152602081019050610718565b50505050905090810190601f1680156107605780820380516001836020036101000a031916815260200191505b509250505060405180910390fd5b5060008111801561078157506002548111155b6040518060400160405280601481526020017f496e76616c69642063616e6469646174652049440000000000000000000000008152509061085d576040517f08c379a00000000000000000000000000000000000000000000000000000000081526004018080602001828103825283818151815260200191508051906020019080838360005b83811015610822578082015181840152602081019050610807565b50505050905090810190601f16801561084f5780820380516001836020036101000a031916815260200191505b509250505060405180910390fd5b5060008060008381526020019081526020016000206000015414156040518060400160405280601981526020017f43616e64696461746520616c72656164792072656d6f7665640000000000000081525090610954576040517f08c379a00000000000000000000000000000000000000000000000000000000081526004018080602001828103825283818151815260200191508051906020019080838360005b838110156109195780820151818401526020810190506108fe565b50505050905090810190601f1680156109465780820380516001836020036101000a031916815260200191505b509250505060405180910390fd5b5060018060003373ffffffffffffffffffffffffffffffffffffffff1673ffffffffffffffffffffffffffffffffffffffff16815260200190815260200160002060006101000a81548160ff02191690831515021790555060006109ce6000808581526020019081526020016000206002015460016122fb565b90506000808481526020019081526020016000206002015481116040518060400160405280601281526020017f496e76616c696420766f746520636f756e74000000000000000000000000000081525090610ac4576040517f08c379a00000000000000000000000000000000000000000000000000000000081526004018080602001828103825283818151815260200191508051906020019080838360005b83811015610a89578082015181840152602081019050610a6e565b50505050905090810190601f168015610ab65780820380516001836020036101000a031916815260200191505b509250505060405180910390fd5b5080600080858152602001908152602001600020600201819055503373ffffffffffffffffffffffffffffffffffffffff16837fef0a8c30b864cd88d58d772c577afd36560b80a69c4eea26d684aa68cca2b1e560405160405180910390a35050610b2f60006122c4565b50565b600560003373ffffffffffffffffffffffffffffffffffffffff1673ffffffffffffffffffffffffffffffffffffffff16815260200190815260200160002060009054906101000a900460ff166040518060400160405280601381526020017f556e617574686f72697a6564206163636573730000000000000000000000000081525090610c5b576040517f08c379a00000000000000000000000000000000000000000000000000000000081526004018080602001828103825283818151815260200191508051906020019080838360005b83811015610c20578082015181840152602081019050610c05565b50505050905090810190601f168015610c4d5780820380516001836020036101000a031916815260200191505b509250505060405180910390fd5b50600081118015610c6e57506002548111155b6040518060400160405280601481526020017f496e76616c69642063616e64696461746520494400000000000000000000000081525090610d4a576040517f08c379a00000000000000000000000000000000000000000000000000000000081526004018080602001828103825283818151815260200191508051906020019080838360005b83811015610d0f578082015181840152602081019050610cf4565b50505050905090810190601f168015610d3c5780820380516001836020036101000a031916815260200191505b509250505060405180910390fd5b5060008060008381526020019081526020016000206000015414156040518060400160405280601981526020017f43616e64696461746520616c72656164792072656d6f7665640000000000000081525090610e41576040517f08c379a00000000000000000000000000000000000000000000000000000000081526004018080602001828103825283818151815260200191508051906020019080838360005b83811015610e06578082015181840152602081019050610deb565b50505050905090810190601f168015610e335780820380516001836020036101000a031916815260200191505b509250505060405180910390fd5b50604051806020016040528060008152506000808381526020019081526020016000206001019080519060200190610e7a929190612416565b50600080600083815260200190815260200160002060020181905550807f294c5a9bc8a39e6e06502bc8da429980f6c7b0990d75b682c12cb8705e3ace8560405160405180910390a250565b60056020528060005260406000206000915054906101000a900460ff1681565b60025481565b600080600090506000600190505b6002548111610f4b5760008060008381526020019081526020016000206001018054600181600116156101000203166002900490501115610f3e5781806001019250505b8080600101915050610efa565b508091505090565b6000602052806000526040600020600091509050806000015490806001018054600181600116156101000203166002900480601f0160208091040260200160405190810160405280929190818152602001828054600181600116156101000203166002900480156110055780601f10610fda57610100808354040283529160200191611005565b820191906000526020600020905b815481529060010190602001808311610fe857829003601f168201915b5050505050908060020154905083565b600560003373ffffffffffffffffffffffffffffffffffffffff1673ffffffffffffffffffffffffffffffffffffffff16815260200190815260200160002060009054906101000a900460ff166040518060400160405280601381526020017f556e617574686f72697a656420616363657373000000000000000000000000008152509061113e576040517f08c379a00000000000000000000000000000000000000000000000000000000081526004018080602001828103825283818151815260200191508051906020019080838360005b838110156111035780820151818401526020810190506110e8565b50505050905090810190601f1680156111305780820380516001836020036101000a031916815260200191505b509250505060405180910390fd5b5080600073ffffffffffffffffffffffffffffffffffffffff168173ffffffffffffffffffffffffffffffffffffffff1614156111e3576040517f08c379a000000000000000000000000000000000000000000000000000000000815260040180806020018281038252600f8152602001807f496e76616c69642061646472657373000000000000000000000000000000000081525060200191505060405180910390fd5b600160008373ffffffffffffffffffffffffffffffffffffffff1673ffffffffffffffffffffffffffffffffffffffff16815260200190815260200160002060009054906101000a900460ff16156040518060400160405280601481526020017f566f74657220616c7265616479206578697374730000000000000000000000008152509061130d576040517f08c379a00000000000000000000000000000000000000000000000000000000081526004018080602001828103825283818151815260200191508051906020019080838360005b838110156112d25780820151818401526020810190506112b7565b50505050905090810190601f1680156112ff5780820380516001836020036101000a031916815260200191505b509250505060405180910390fd5b5060018060008473ffffffffffffffffffffffffffffffffffffffff1673ffffffffffffffffffffffffffffffffffffffff16815260200190815260200160002060006101000a81548160ff0219169083151502179055508173ffffffffffffffffffffffffffffffffffffffff167fb6be2187d059cc2a55fe29e0e503b566e1e0f8c8780096e185429350acffd3dd60405160405180910390a25050565b600460009054906101000a900473ffffffffffffffffffffffffffffffffffffffff1673ffffffffffffffffffffffffffffffffffffffff163373ffffffffffffffffffffffffffffffffffffffff16146040518060400160405280601381526020017f556e617574686f72697a65642061636365737300000000000000000000000000815250906114d9576040517f08c379a00000000000000000000000000000000000000000000000000000000081526004018080602001828103825283818151815260200191508051906020019080838360005b8381101561149e578082015181840152602081019050611483565b50505050905090810190601f1680156114cb5780820380516001836020036101000a031916815260200191505b509250505060405180910390fd5b50600081511180156114ed57506020815111155b6040518060400160405280602081526020017f496e76616c6964206e616d65206c656e6774682028302d333220636861727329815250906115c9576040517f08c379a00000000000000000000000000000000000000000000000000000000081526004018080602001828103825283818151815260200191508051906020019080838360005b8381101561158e578082015181840152602081019050611573565b50505050905090810190601f1680156115bb5780820380516001836020036101000a031916815260200191505b509250505060405180910390fd5b506002600081548092919060010191905055506040518060600160405280600254815260200182815260200160008152506000806002548152602001908152602001600020600082015181600001556020820151816001019080519060200190611634929190612496565b50604082015181600201559050506002547fe83b2a43e7e82d975c8a0a6d2f045153c869e111136a34d1889ab7b598e396a3826040518080602001828103825283818151815260200191508051906020019080838360005b838110156116a757808201518184015260208101905061168c565b50505050905090810190601f1680156116d45780820380516001836020036101000a031916815260200191505b509250505060405180910390a250565b600460009054906101000a900473ffffffffffffffffffffffffffffffffffffffff1673ffffffffffffffffffffffffffffffffffffffff163373ffffffffffffffffffffffffffffffffffffffff16146040518060400160405280601381526020017f556e617574686f72697a6564206163636573730000000000000000000000000081525090611811576040517f08c379a00000000000000000000000000000000000000000000000000000000081526004018080602001828103825283818151815260200191508051906020019080838360005b838110156117d65780820151818401526020810190506117bb565b50505050905090810190601f1680156118035780820380516001836020036101000a031916815260200191505b509250505060405180910390fd5b5061181a6122ec565b6040518060400160405280601681526020017f456c656374696f6e206973206e6f742061637469766500000000000000000000815250906118f6576040517f08c379a00000000000000000000000000000000000000000000000000000000081526004018080602001828103825283818151815260200191508051906020019080838360005b838110156118bb5780820151818401526020810190506118a0565b50505050905090810190601f1680156118e85780820380516001836020036101000a031916815260200191505b509250505060405180910390fd5b5061190160006123ee565b7f66ec723071e4bb646f7b35d31bc2dee8510979bd8c180edd0690d4f5e802f1e460405160405180910390a1565b600460009054906101000a900473ffffffffffffffffffffffffffffffffffffffff1673ffffffffffffffffffffffffffffffffffffffff163373ffffffffffffffffffffffffffffffffffffffff16146040518060400160405280601381526020017f556e617574686f72697a6564206163636573730000000000000000000000000081525090611a5c576040517f08c379a00000000000000000000000000000000000000000000000000000000081526004018080602001828103825283818151815260200191508051906020019080838360005b83811015611a21578082015181840152602081019050611a06565b50505050905090810190601f168015611a4e5780820380516001836020036101000a031916815260200191505b509250505060405180910390fd5b50600560008273ffffffffffffffffffffffffffffffffffffffff1673ffffffffffffffffffffffffffffffffffffffff16815260200190815260200160002060009054906101000a900460ff16611b1c576040517f08c379a000000000000000000000000000000000000000000000000000000000815260040180806020018281038252600f8152602001807f4e6f742061206d6f64657261746f72000000000000000000000000000000000081525060200191505060405180910390fd5b600460009054906101000a900473ffffffffffffffffffffffffffffffffffffffff1673ffffffffffffffffffffffffffffffffffffffff168173ffffffffffffffffffffffffffffffffffffffff161415611bc3576040517f08c379a000000000000000000000000000000000000000000000000000000000815260040180806020018281038252602381526020018061253c6023913960400191505060405180910390fd5b6000600560008373ffffffffffffffffffffffffffffffffffffffff1673ffffffffffffffffffffffffffffffffffffffff16815260200190815260200160002060006101000a81548160ff0219169083151502179055508073ffffffffffffffffffffffffffffffffffffffff167f7a9f1e23d5426b34819d173153d59084cc3578d5a129b80bb27df683ac6b227860405160405180910390a250565b60016020528060005260406000206000915054906101000a900460ff1681565b600460009054906101000a900473ffffffffffffffffffffffffffffffffffffffff1673ffffffffffffffffffffffffffffffffffffffff163373ffffffffffffffffffffffffffffffffffffffff16146040518060400160405280601381526020017f556e617574686f72697a6564206163636573730000000000000000000000000081525090611dae576040517f08c379a00000000000000000000000000000000000000000000000000000000081526004018080602001828103825283818151815260200191508051906020019080838360005b83811015611d73578082015181840152602081019050611d58565b50505050905090810190601f168015611da05780820380516001836020036101000a031916815260200191505b509250505060405180910390fd5b5080600073ffffffffffffffffffffffffffffffffffffffff168173ffffffffffffffffffffffffffffffffffffffff161415611e53576040517f08c379a000000000000000000000000000000000000000000000000000000000815260040180806020018281038252600f8152602001807f496e76616c69642061646472657373000000000000000000000000000000000081525060200191505060405180910390fd5b600560008373ffffffffffffffffffffffffffffffffffffffff1673ffffffffffffffffffffffffffffffffffffffff16815260200190815260200160002060009054906101000a900460ff1615611f13576040517f08c379a00000000000000000000000000000000000000000000000000000000081526004018080602001828103825260138152602001807f416c72656164792061206d6f64657261746f720000000000000000000000000081525060200191505060405180910390fd5b6001600560008473ffffffffffffffffffffffffffffffffffffffff1673ffffffffffffffffffffffffffffffffffffffff16815260200190815260200160002060006101000a81548160ff0219169083151502179055508173ffffffffffffffffffffffffffffffffffffffff167fd378ad41c1a753fd1ba9ec0fcd7970526c175b68545b4a02d6d15e7606fe359660405160405180910390a25050565b600460009054906101000a900473ffffffffffffffffffffffffffffffffffffffff1673ffffffffffffffffffffffffffffffffffffffff163373ffffffffffffffffffffffffffffffffffffffff16146040518060400160405280601381526020017f556e617574686f72697a65642061636365737300000000000000000000000000815250906120df576040517f08c379a00000000000000000000000000000000000000000000000000000000081526004018080602001828103825283818151815260200191508051906020019080838360005b838110156120a4578082015181840152602081019050612089565b50505050905090810190601f1680156120d15780820380516001836020036101000a031916815260200191505b509250505060405180910390fd5b506120e86122ec565b156040518060400160405280601a81526020017f456c656374696f6e20697320616c726561647920616374697665000000000000815250906121c5576040517f08c379a00000000000000000000000000000000000000000000000000000000081526004018080602001828103825283818151815260200191508051906020019080838360005b8381101561218a57808201518184015260208101905061216f565b50505050905090810190601f1680156121b75780820380516001836020036101000a031916815260200191505b509250505060405180910390fd5b506000600190505b6002548111612256576000806000838152602001908152602001600020600201819055506000600160008373ffffffffffffffffffffffffffffffffffffffff1673ffffffffffffffffffffffffffffffffffffffff16815260200190815260200160002060006101000a81548160ff02191690831515021790555080806001019150506121cd565b5061226160016123ee565b7f8d1085cd9eceaab0b77fd20c66dea55df08e5ef2d52859c2cb4a1e16ba9476c060405160405180910390a1565b600460009054906101000a900473ffffffffffffffffffffffffffffffffffffffff1681565b60006002806003541614905090565b80156122db576002600354176003819055506122e9565b600219600354166003819055505b50565b60006001806003541614905090565b6000808284019050838110156040518060400160405280601a81526020017f4e656761746976652076616c7565206e6f7420616c6c6f776564000000000000815250906123e3576040517f08c379a00000000000000000000000000000000000000000000000000000000081526004018080602001828103825283818151815260200191508051906020019080838360005b838110156123a857808201518184015260208101905061238d565b50505050905090810190601f1680156123d55780820380516001836020036101000a031916815260200191505b509250505060405180910390fd5b508091505092915050565b801561240557600160035417600381905550612413565b600119600354166003819055505b50565b828054600181600116156101000203166002900490600052602060002090601f016020900481019282601f1061245757805160ff1916838001178555612485565b82800160010185558215612485579182015b82811115612484578251825591602001919060010190612469565b5b5090506124929190612516565b5090565b828054600181600116156101000203166002900490600052602060002090601f016020900481019282601f106124d757805160ff1916838001178555612505565b82800160010185558215612505579182015b828111156125045782518255916020019190600101906124e9565b5b5090506125129190612516565b5090565b61253891905b8082111561253457600081600090555060010161251c565b5090565b9056fe43616e6e6f742072656d6f76652061646d696e2066726f6d206d6f64657261746f7273a265627a7a7231582010303f266947b2b67648992031fbee5c9286d6b6717112debbd598daaeb4d24364736f6c63430005100032",
  "source": "pragma solidity >=0.4.22 <0.6.0;\r\n\r\ncontract Election {\r\n    struct Candidate {\r\n        uint id;\r\n        string name;\r\n        uint voteCount;\r\n    }\r\n\r\n    mapping(uint => Candidate) public candidates;\r\n    mapping(address => bool) public voters;\r\n    uint public candidatesCount;\r\n    uint256 private flags; // electionActive  locked   \r\n    address public admin;\r\n    mapping(address => bool) public moderators;\r\n\r\n\r\n    event CandidateAdded(uint indexed candidateId, string name);\r\n    event CandidateRemoved(uint indexed candidateId);\r\n    event VotedEvent(uint indexed candidateId, address indexed voter);\r\n    event VoterRegistered(address indexed voter);\r\n    event ElectionStarted();\r\n    event ElectionEnded();\r\n    event ElectionReset();\r\n    event ModeratorAdded(address indexed moderator);\r\n    event ModeratorRemoved(address indexed moderator);\r\n\r\n\r\n    string constant INVALID_CANDIDATE_ID = \"Invalid candidate ID\";\r\n    string constant INVALID_NAME_LENGTH = \"Invalid name length (0-32 chars)\";\r\n    string constant NEGATIVE_VALUE = \"Negative value not allowed\";\r\n    string constant DUPLICATE_VOTER = \"Voter already exists\";\r\n    string constant UNAUTHORIZED = \"Unauthorized access\";\r\n    string constant ELECTION_NOT_ACTIVE = \"Election is not active\";\r\n    string constant ELECTION_ALREADY_ACTIVE = \"Election is already active\";\r\n    string constant CANDIDATE_REMOVED = \"Candidate already removed\";\r\n    string constant ADMIN_PROTECTED = \"Cannot remove admin\";\r\n    string constant INVALID_VOTE = \"Invalid vote count\";\r\n\r\n\r\n    uint256 private constant ELECTION_ACTIVE_FLAG = 1;\r\n    uint256 private constant LOCKED_FLAG = 2;\r\n\r\n    modifier onlyAdmin() {\r\n        require(msg.sender == admin, UNAUTHORIZED);\r\n        _;\r\n    }\r\n    \r\n    modifier onlyModerator() {\r\n        require(moderators[msg.sender], UNAUTHORIZED);\r\n        _;\r\n    }\r\n\r\n\r\n    modifier noReentrant() {\r\n        require(!locked(), \"Reentrant call detected\");\r\n        setLocked(true);\r\n        _;\r\n        setLocked(false);\r\n    }\r\n    \r\n\r\n    modifier safeOperations(uint a, uint b) {\r\n        require(a + b >= a, \"Overflow detected\");\r\n        _;\r\n    }\r\n    \r\n   \r\n    modifier validAddress(address _address) {\r\n        require(_address != address(0), \"Invalid address\");\r\n        _;\r\n    }\r\n\r\n    modifier validVoter(uint _candidateId) {\r\n        require(isElectionActive(), ELECTION_NOT_ACTIVE);\r\n        require(!voters[msg.sender], DUPLICATE_VOTER);\r\n        require(_candidateId > 0 && _candidateId <= candidatesCount, INVALID_CANDIDATE_ID);\r\n        require(candidates[_candidateId].id != 0, CANDIDATE_REMOVED);\r\n        _;\r\n    }\r\n\r\n    constructor() public {\r\n        admin = msg.sender;\r\n        moderators[msg.sender] = true;\r\n        setElectionActive(true);\r\n        emit ElectionStarted();\r\n        addCandidate(\"Shamid\");\r\n        addCandidate(\"Yakhiyayeva Marzhan\");\r\n        addCandidate(\"Akylbek Mendibayev\");\r\n        addCandidate(\"Adylbekova Zhanel\");\r\n        addCandidate(\"Mustafa Akerke\");\r\n    }\r\n\r\n    function addCandidate(string memory _name) public onlyAdmin {\r\n        require(bytes(_name).length > 0 && bytes(_name).length <= 32, INVALID_NAME_LENGTH);\r\n        candidatesCount++;\r\n        candidates[candidatesCount] = Candidate(candidatesCount, _name, 0);\r\n        emit CandidateAdded(candidatesCount, _name);\r\n    }\r\n\r\n    function removeCandidate(uint _candidateId) public onlyModerator {\r\n        require(_candidateId > 0 && _candidateId <= candidatesCount, INVALID_CANDIDATE_ID);\r\n        require(candidates[_candidateId].id != 0, CANDIDATE_REMOVED);\r\n        \r\n        candidates[_candidateId].name = \"\";\r\n        candidates[_candidateId].voteCount = 0;\r\n        \r\n        emit CandidateRemoved(_candidateId);\r\n    }\r\n\r\n    function registerVoter(address _voter) public onlyModerator validAddress(_voter) {\r\n        require(!voters[_voter], DUPLICATE_VOTER);\r\n        voters[_voter] = true;\r\n        emit VoterRegistered(_voter);\r\n    }\r\n\r\n    function vote(uint _candidateId) public noReentrant validVoter(_candidateId) {\r\n        voters[msg.sender] = true;\r\n        uint256 newVoteCount = safeAdd(candidates[_candidateId].voteCount, 1);\r\n        require(newVoteCount > candidates[_candidateId].voteCount, INVALID_VOTE);\r\n        candidates[_candidateId].voteCount = newVoteCount;\r\n\r\n        emit VotedEvent(_candidateId, msg.sender);\r\n    }\r\n\r\n    function endElection() public onlyAdmin {\r\n        require(isElectionActive(), ELECTION_NOT_ACTIVE);\r\n        setElectionActive(false);\r\n        emit ElectionEnded();\r\n    }\r\n\r\n    function resetElection() public onlyAdmin {\r\n        require(!isElectionActive(), ELECTION_ALREADY_ACTIVE);\r\n        \r\n        for (uint i = 1; i <= candidatesCount; i++) {\r\n            candidates[i].voteCount = 0;\r\n            voters[address(i)] = false;\r\n        }\r\n        \r\n        setElectionActive(true);\r\n        emit ElectionReset();\r\n    }\r\n\r\n    function addModerator(address _moderator) public onlyAdmin validAddress(_moderator) {\r\n        require(!moderators[_moderator], \"Already a moderator\");\r\n        moderators[_moderator] = true;\r\n        emit ModeratorAdded(_moderator);\r\n    }\r\n\r\n    function removeModerator(address _moderator) public onlyAdmin {\r\n        require(moderators[_moderator], \"Not a moderator\");\r\n        require(_moderator != admin, \"Cannot remove admin from moderators\");\r\n        moderators[_moderator] = false;\r\n        emit ModeratorRemoved(_moderator);\r\n    }\r\n\r\n    function safeAdd(uint a, uint b) internal pure returns (uint) {\r\n        uint c = a + b;\r\n        require(c >= a, NEGATIVE_VALUE);\r\n        return c;\r\n    }\r\n\r\n    function isElectionActive() internal view returns (bool) {\r\n        return (flags & ELECTION_ACTIVE_FLAG) == ELECTION_ACTIVE_FLAG;\r\n    }\r\n\r\n    function setElectionActive(bool _active) internal {\r\n        if(_active) {\r\n            flags = flags | ELECTION_ACTIVE_FLAG;\r\n        } else {\r\n            flags = flags & ~ELECTION_ACTIVE_FLAG;\r\n        }\r\n    }\r\n\r\n    function locked() internal view returns (bool) {\r\n        return (flags & LOCKED_FLAG) == LOCKED_FLAG;\r\n    }\r\n\r\n    function setLocked(bool _locked) internal {\r\n        if(_locked) {\r\n            flags = flags | LOCKED_FLAG;\r\n        } else {\r\n            flags = flags & ~LOCKED_FLAG;\r\n        }\r\n    }\r\n\r\n    function getCandidateCount() public view returns (uint) {\r\n        uint activeCount = 0;\r\n        for (uint i = 1; i <= candidatesCount; i++) {\r\n            if (bytes(candidates[i].name).length > 0) {\r\n                activeCount++;\r\n            }\r\n        }\r\n        return activeCount;\r\n    }\r\n}\r\n",
  "sourcePath": "C:\\Users\\admin\\Desktop\\DeVoting\\contracts\\Election.sol",
  "compiler": {
    "name": "solc",
    "version": "0.5.16+commit.9c3226ce.Emscripten.clang"
  },
  "schemaVersion": "3.4.16",
  "updatedAt": "2025-02-17T05:16:55.330Z",
  "networkType": "ethereum",
  "devdoc": {
    "methods": {}
  },
  "userdoc": {
    "methods": {}
  }
}