{
  "contractName": "Election",
  "abi": [
    {
      "inputs": [],
      "payable": false,
      "stateMutability": "nonpayable",
      "type": "constructor"
    },
    {
      "anonymous": false,
      "inputs": [
        {
          "indexed": true,
          "internalType": "uint256",
          "name": "candidateId",
          "type": "uint256"
        },
        {
          "indexed": false,
          "internalType": "string",
          "name": "name",
          "type": "string"
        }
      ],
      "name": "CandidateAdded",
      "type": "event"
    },
    {
      "anonymous": false,
      "inputs": [
        {
          "indexed": true,
          "internalType": "uint256",
          "name": "candidateId",
          "type": "uint256"
        }
      ],
      "name": "CandidateRemoved",
      "type": "event"
    },
    {
      "anonymous": false,
      "inputs": [],
      "name": "ElectionEnded",
      "type": "event"
    },
    {
      "anonymous": false,
      "inputs": [],
      "name": "ElectionReset",
      "type": "event"
    },
    {
      "anonymous": false,
      "inputs": [],
      "name": "ElectionStarted",
      "type": "event"
    },
    {
      "anonymous": false,
      "inputs": [
        {
          "indexed": true,
          "internalType": "uint256",
          "name": "candidateId",
          "type": "uint256"
        },
        {
          "indexed": true,
          "internalType": "address",
          "name": "voter",
          "type": "address"
        }
      ],
      "name": "VotedEvent",
      "type": "event"
    },
    {
      "anonymous": false,
      "inputs": [
        {
          "indexed": true,
          "internalType": "address",
          "name": "voter",
          "type": "address"
        }
      ],
      "name": "VoterRegistered",
      "type": "event"
    },
    {
      "constant": true,
      "inputs": [
        {
          "internalType": "uint256",
          "name": "",
          "type": "uint256"
        }
      ],
      "name": "candidates",
      "outputs": [
        {
          "internalType": "uint256",
          "name": "id",
          "type": "uint256"
        },
        {
          "internalType": "string",
          "name": "name",
          "type": "string"
        },
        {
          "internalType": "uint256",
          "name": "voteCount",
          "type": "uint256"
        }
      ],
      "payable": false,
      "stateMutability": "view",
      "type": "function"
    },
    {
      "constant": true,
      "inputs": [],
      "name": "candidatesCount",
      "outputs": [
        {
          "internalType": "uint256",
          "name": "",
          "type": "uint256"
        }
      ],
      "payable": false,
      "stateMutability": "view",
      "type": "function"
    },
    {
      "constant": true,
      "inputs": [],
      "name": "electionActive",
      "outputs": [
        {
          "internalType": "bool",
          "name": "",
          "type": "bool"
        }
      ],
      "payable": false,
      "stateMutability": "view",
      "type": "function"
    },
    {
      "constant": true,
      "inputs": [
        {
          "internalType": "address",
          "name": "",
          "type": "address"
        }
      ],
      "name": "voters",
      "outputs": [
        {
          "internalType": "bool",
          "name": "",
          "type": "bool"
        }
      ],
      "payable": false,
      "stateMutability": "view",
      "type": "function"
    },
    {
      "constant": false,
      "inputs": [
        {
          "internalType": "uint256",
          "name": "_candidateId",
          "type": "uint256"
        }
      ],
      "name": "removeCandidate",
      "outputs": [],
      "payable": false,
      "stateMutability": "nonpayable",
      "type": "function"
    },
    {
      "constant": false,
      "inputs": [
        {
          "internalType": "address",
          "name": "_voter",
          "type": "address"
        }
      ],
      "name": "registerVoter",
      "outputs": [],
      "payable": false,
      "stateMutability": "nonpayable",
      "type": "function"
    },
    {
      "constant": false,
      "inputs": [
        {
          "internalType": "uint256",
          "name": "_candidateId",
          "type": "uint256"
        }
      ],
      "name": "vote",
      "outputs": [],
      "payable": false,
      "stateMutability": "nonpayable",
      "type": "function"
    },
    {
      "constant": false,
      "inputs": [],
      "name": "endElection",
      "outputs": [],
      "payable": false,
      "stateMutability": "nonpayable",
      "type": "function"
    },
    {
      "constant": false,
      "inputs": [],
      "name": "resetElection",
      "outputs": [],
      "payable": false,
      "stateMutability": "nonpayable",
      "type": "function"
    }
  ],
  "bytecode": "0x60806040523480156200001157600080fd5b506001600360006101000a81548160ff0219169083151502179055507fc475c26aa25ed8e85a7faa790e5f63b5d7ee1025f12821f4c9bfddd36ab4d11260405160405180910390a16200009f6040518060400160405280600681526020017f5368616d69640000000000000000000000000000000000000000000000000000815250620001bd60201b60201c565b620000e56040518060400160405280601381526020017f59616b6869796179657661204d61727a68616e00000000000000000000000000815250620001bd60201b60201c565b6200012b6040518060400160405280601281526020017f416b796c62656b204d656e646962617965760000000000000000000000000000815250620001bd60201b60201c565b620001716040518060400160405280601181526020017f4164796c62656b6f7661205a68616e656c000000000000000000000000000000815250620001bd60201b60201c565b620001b76040518060400160405280600e81526020017f4d75737461666120416b65726b65000000000000000000000000000000000000815250620001bd60201b60201c565b6200038b565b600260008154809291906001019190505550604051806060016040528060025481526020018281526020016000815250600080600254815260200190815260200160002060008201518160000155602082015181600101908051906020019062000229929190620002dc565b50604082015181600201559050506002547fe83b2a43e7e82d975c8a0a6d2f045153c869e111136a34d1889ab7b598e396a3826040518080602001828103825283818151815260200191508051906020019080838360005b838110156200029e57808201518184015260208101905062000281565b50505050905090810190601f168015620002cc5780820380516001836020036101000a031916815260200191505b509250505060405180910390a250565b828054600181600116156101000203166002900490600052602060002090601f016020900481019282601f106200031f57805160ff191683800117855562000350565b8280016001018555821562000350579182015b828111156200034f57825182559160200191906001019062000332565b5b5090506200035f919062000363565b5090565b6200038891905b80821115620003845760008160009055506001016200036a565b5090565b90565b610acc806200039b6000396000f3fe608060405234801561001057600080fd5b50600436106100935760003560e01c806338db6dd31161006657806338db6dd3146101c757806359f784681461020b5780637ed628bb14610215578063a3ec138d14610237578063e8f305231461029357610093565b80630121b93f1461009857806309e9d7e2146100c65780632d35a8a2146100f45780633477ee2e14610112575b600080fd5b6100c4600480360360208110156100ae57600080fd5b810190808035906020019092919050505061029d565b005b6100f2600480360360208110156100dc57600080fd5b8101908080359060200190929190505050610526565b005b6100fc61060f565b6040518082815260200191505060405180910390f35b61013e6004803603602081101561012857600080fd5b8101908080359060200190929190505050610615565b6040518084815260200180602001838152602001828103825284818151815260200191508051906020019080838360005b8381101561018a57808201518184015260208101905061016f565b50505050905090810190601f1680156101b75780820380516001836020036101000a031916815260200191505b5094505050505060405180910390f35b610209600480360360208110156101dd57600080fd5b81019080803573ffffffffffffffffffffffffffffffffffffffff1690602001909291905050506106d7565b005b610213610834565b005b61021d6108ff565b604051808215151515815260200191505060405180910390f35b6102796004803603602081101561024d57600080fd5b81019080803573ffffffffffffffffffffffffffffffffffffffff169060200190929190505050610912565b604051808215151515815260200191505060405180910390f35b61029b610932565b005b600360009054906101000a900460ff1661031f576040517f08c379a00000000000000000000000000000000000000000000000000000000081526004018080602001828103825260168152602001807f456c656374696f6e206973206e6f74206163746976650000000000000000000081525060200191505060405180910390fd5b600160003373ffffffffffffffffffffffffffffffffffffffff1673ffffffffffffffffffffffffffffffffffffffff16815260200190815260200160002060009054906101000a900460ff16156103df576040517f08c379a00000000000000000000000000000000000000000000000000000000081526004018080602001828103825260138152602001807f566f74657220616c726561647920766f7465640000000000000000000000000081525060200191505060405180910390fd5b6000811180156103f157506002548111155b610463576040517f08c379a00000000000000000000000000000000000000000000000000000000081526004018080602001828103825260148152602001807f496e76616c69642063616e64696461746520494400000000000000000000000081525060200191505060405180910390fd5b60018060003373ffffffffffffffffffffffffffffffffffffffff1673ffffffffffffffffffffffffffffffffffffffff16815260200190815260200160002060006101000a81548160ff021916908315150217905550600080828152602001908152602001600020600201600081548092919060010191905055503373ffffffffffffffffffffffffffffffffffffffff16817fef0a8c30b864cd88d58d772c577afd36560b80a69c4eea26d684aa68cca2b1e560405160405180910390a350565b60008111801561053857506002548111155b6105aa576040517f08c379a00000000000000000000000000000000000000000000000000000000081526004018080602001828103825260148152602001807f496e76616c69642063616e64696461746520494400000000000000000000000081525060200191505060405180910390fd5b6000808281526020019081526020016000206000808201600090556001820160006105d59190610a2a565b60028201600090555050807f294c5a9bc8a39e6e06502bc8da429980f6c7b0990d75b682c12cb8705e3ace8560405160405180910390a250565b60025481565b6000602052806000526040600020600091509050806000015490806001018054600181600116156101000203166002900480601f0160208091040260200160405190810160405280929190818152602001828054600181600116156101000203166002900480156106c75780601f1061069c576101008083540402835291602001916106c7565b820191906000526020600020905b8154815290600101906020018083116106aa57829003601f168201915b5050505050908060020154905083565b600160008273ffffffffffffffffffffffffffffffffffffffff1673ffffffffffffffffffffffffffffffffffffffff16815260200190815260200160002060009054906101000a900460ff1615610797576040517f08c379a00000000000000000000000000000000000000000000000000000000081526004018080602001828103825260188152602001807f566f74657220616c72656164792072656769737465726564000000000000000081525060200191505060405180910390fd5b60018060008373ffffffffffffffffffffffffffffffffffffffff1673ffffffffffffffffffffffffffffffffffffffff16815260200190815260200160002060006101000a81548160ff0219169083151502179055508073ffffffffffffffffffffffffffffffffffffffff167fb6be2187d059cc2a55fe29e0e503b566e1e0f8c8780096e185429350acffd3dd60405160405180910390a250565b600360009054906101000a900460ff166108b6576040517f08c379a00000000000000000000000000000000000000000000000000000000081526004018080602001828103825260168152602001807f456c656374696f6e20616c726561647920656e6465640000000000000000000081525060200191505060405180910390fd5b6000600360006101000a81548160ff0219169083151502179055507f66ec723071e4bb646f7b35d31bc2dee8510979bd8c180edd0690d4f5e802f1e460405160405180910390a1565b600360009054906101000a900460ff1681565b60016020528060005260406000206000915054906101000a900460ff1681565b6001600360006101000a81548160ff0219169083151502179055506000600190505b6002548111610985576000806000838152602001908152602001600020600201819055508080600101915050610954565b506000600190505b60025481116109fb576000600160008373ffffffffffffffffffffffffffffffffffffffff1673ffffffffffffffffffffffffffffffffffffffff16815260200190815260200160002060006101000a81548160ff021916908315150217905550808060010191505061098d565b507f8d1085cd9eceaab0b77fd20c66dea55df08e5ef2d52859c2cb4a1e16ba9476c060405160405180910390a1565b50805460018160011615610100020316600290046000825580601f10610a505750610a6f565b601f016020900490600052602060002090810190610a6e9190610a72565b5b50565b610a9491905b80821115610a90576000816000905550600101610a78565b5090565b9056fea265627a7a723158204b01177117321e4ed576745376a49dce8a53e3db17bc62d63e9de2da979ee0e464736f6c63430005100032",
  "source": "pragma solidity >=0.4.22 <0.6.0;\r\n\r\ncontract Election {\r\n    struct Candidate {\r\n        uint id;\r\n        string name;\r\n        uint voteCount;\r\n    }\r\n\r\n    mapping(uint => Candidate) public candidates;\r\n    mapping(address => bool) public voters;\r\n    uint public candidatesCount;\r\n    bool public electionActive;\r\n\r\n    // События\r\n    event CandidateAdded(uint indexed candidateId, string name);\r\n    event CandidateRemoved(uint indexed candidateId);\r\n    event VotedEvent(uint indexed candidateId, address indexed voter);\r\n    event VoterRegistered(address indexed voter);\r\n    event ElectionStarted();\r\n    event ElectionEnded();\r\n    event ElectionReset();\r\n\r\n    constructor() public {\r\n        electionActive = true;\r\n        emit ElectionStarted();\r\n        addCandidate(\"Shamid\");\r\n        addCandidate(\"Yakhiyayeva Marzhan\");\r\n        addCandidate(\"Akylbek Mendibayev\");\r\n        addCandidate(\"Adylbekova Zhanel\");\r\n        addCandidate(\"Mustafa Akerke\");\r\n    }\r\n\r\n    function addCandidate(string memory _name) private {\r\n        candidatesCount++;\r\n        candidates[candidatesCount] = Candidate(candidatesCount, _name, 0);\r\n        emit CandidateAdded(candidatesCount, _name);\r\n    }\r\n\r\n    function removeCandidate(uint _candidateId) public {\r\n        require(_candidateId > 0 && _candidateId <= candidatesCount, \"Invalid candidate ID\");\r\n        delete candidates[_candidateId];\r\n        emit CandidateRemoved(_candidateId);\r\n    }\r\n\r\n    function registerVoter(address _voter) public {\r\n        require(!voters[_voter], \"Voter already registered\");\r\n        voters[_voter] = true;\r\n        emit VoterRegistered(_voter);\r\n    }\r\n\r\n    function vote(uint _candidateId) public {\r\n        require(electionActive, \"Election is not active\");\r\n        require(!voters[msg.sender], \"Voter already voted\");\r\n        require(_candidateId > 0 && _candidateId <= candidatesCount, \"Invalid candidate ID\");\r\n\r\n        voters[msg.sender] = true;\r\n        candidates[_candidateId].voteCount++;\r\n\r\n        emit VotedEvent(_candidateId, msg.sender);\r\n    }\r\n\r\n    function endElection() public {\r\n        require(electionActive, \"Election already ended\");\r\n        electionActive = false;\r\n        emit ElectionEnded();\r\n    }\r\n\r\n    function resetElection() public {\r\n        electionActive = true;\r\n        for (uint i = 1; i <= candidatesCount; i++) {\r\n            candidates[i].voteCount = 0;\r\n        }\r\n        for (uint i = 1; i <= candidatesCount; i++) {\r\n            voters[address(i)] = false;\r\n        }\r\n        emit ElectionReset();\r\n    }\r\n}\r\n",
  "sourcePath": "C:\\Users\\admin\\DeVoting\\contracts\\Election.sol",
  "compiler": {
    "name": "solc",
    "version": "0.5.16+commit.9c3226ce.Emscripten.clang"
  },
  "schemaVersion": "3.4.16",
  "updatedAt": "2025-02-06T08:22:53.084Z",
  "networkType": "ethereum",
  "devdoc": {
    "methods": {}
  },
  "userdoc": {
    "methods": {}
  }
}