{
  "contractName": "Election",
  "abi": [
    {
      "inputs": [],
      "payable": false,
      "stateMutability": "nonpayable",
      "type": "constructor"
    },
    {
      "anonymous": false,
      "inputs": [
        {
          "indexed": true,
          "internalType": "uint256",
          "name": "candidateId",
          "type": "uint256"
        },
        {
          "indexed": false,
          "internalType": "string",
          "name": "name",
          "type": "string"
        }
      ],
      "name": "CandidateAdded",
      "type": "event"
    },
    {
      "anonymous": false,
      "inputs": [
        {
          "indexed": true,
          "internalType": "uint256",
          "name": "candidateId",
          "type": "uint256"
        }
      ],
      "name": "CandidateRemoved",
      "type": "event"
    },
    {
      "anonymous": false,
      "inputs": [],
      "name": "ElectionEnded",
      "type": "event"
    },
    {
      "anonymous": false,
      "inputs": [],
      "name": "ElectionReset",
      "type": "event"
    },
    {
      "anonymous": false,
      "inputs": [],
      "name": "ElectionStarted",
      "type": "event"
    },
    {
      "anonymous": false,
      "inputs": [
        {
          "indexed": true,
          "internalType": "address",
          "name": "moderator",
          "type": "address"
        }
      ],
      "name": "ModeratorAdded",
      "type": "event"
    },
    {
      "anonymous": false,
      "inputs": [
        {
          "indexed": true,
          "internalType": "address",
          "name": "moderator",
          "type": "address"
        }
      ],
      "name": "ModeratorRemoved",
      "type": "event"
    },
    {
      "anonymous": false,
      "inputs": [
        {
          "indexed": true,
          "internalType": "uint256",
          "name": "candidateId",
          "type": "uint256"
        },
        {
          "indexed": true,
          "internalType": "address",
          "name": "voter",
          "type": "address"
        }
      ],
      "name": "VotedEvent",
      "type": "event"
    },
    {
      "anonymous": false,
      "inputs": [
        {
          "indexed": true,
          "internalType": "address",
          "name": "voter",
          "type": "address"
        }
      ],
      "name": "VoterRegistered",
      "type": "event"
    },
    {
      "constant": true,
      "inputs": [],
      "name": "admin",
      "outputs": [
        {
          "internalType": "address",
          "name": "",
          "type": "address"
        }
      ],
      "payable": false,
      "stateMutability": "view",
      "type": "function"
    },
    {
      "constant": true,
      "inputs": [
        {
          "internalType": "uint256",
          "name": "",
          "type": "uint256"
        }
      ],
      "name": "candidates",
      "outputs": [
        {
          "internalType": "uint256",
          "name": "id",
          "type": "uint256"
        },
        {
          "internalType": "string",
          "name": "name",
          "type": "string"
        },
        {
          "internalType": "uint256",
          "name": "voteCount",
          "type": "uint256"
        }
      ],
      "payable": false,
      "stateMutability": "view",
      "type": "function"
    },
    {
      "constant": true,
      "inputs": [],
      "name": "candidatesCount",
      "outputs": [
        {
          "internalType": "uint256",
          "name": "",
          "type": "uint256"
        }
      ],
      "payable": false,
      "stateMutability": "view",
      "type": "function"
    },
    {
      "constant": true,
      "inputs": [
        {
          "internalType": "address",
          "name": "",
          "type": "address"
        }
      ],
      "name": "moderators",
      "outputs": [
        {
          "internalType": "bool",
          "name": "",
          "type": "bool"
        }
      ],
      "payable": false,
      "stateMutability": "view",
      "type": "function"
    },
    {
      "constant": true,
      "inputs": [
        {
          "internalType": "address",
          "name": "",
          "type": "address"
        }
      ],
      "name": "voters",
      "outputs": [
        {
          "internalType": "bool",
          "name": "",
          "type": "bool"
        }
      ],
      "payable": false,
      "stateMutability": "view",
      "type": "function"
    },
    {
      "constant": false,
      "inputs": [
        {
          "internalType": "uint256",
          "name": "_candidateId",
          "type": "uint256"
        }
      ],
      "name": "removeCandidate",
      "outputs": [],
      "payable": false,
      "stateMutability": "nonpayable",
      "type": "function"
    },
    {
      "constant": false,
      "inputs": [
        {
          "internalType": "address",
          "name": "_voter",
          "type": "address"
        }
      ],
      "name": "registerVoter",
      "outputs": [],
      "payable": false,
      "stateMutability": "nonpayable",
      "type": "function"
    },
    {
      "constant": false,
      "inputs": [
        {
          "internalType": "uint256",
          "name": "_candidateId",
          "type": "uint256"
        }
      ],
      "name": "vote",
      "outputs": [],
      "payable": false,
      "stateMutability": "nonpayable",
      "type": "function"
    },
    {
      "constant": false,
      "inputs": [],
      "name": "endElection",
      "outputs": [],
      "payable": false,
      "stateMutability": "nonpayable",
      "type": "function"
    },
    {
      "constant": false,
      "inputs": [],
      "name": "resetElection",
      "outputs": [],
      "payable": false,
      "stateMutability": "nonpayable",
      "type": "function"
    },
    {
      "constant": false,
      "inputs": [
        {
          "internalType": "address",
          "name": "_moderator",
          "type": "address"
        }
      ],
      "name": "addModerator",
      "outputs": [],
      "payable": false,
      "stateMutability": "nonpayable",
      "type": "function"
    },
    {
      "constant": false,
      "inputs": [
        {
          "internalType": "address",
          "name": "_moderator",
          "type": "address"
        }
      ],
      "name": "removeModerator",
      "outputs": [],
      "payable": false,
      "stateMutability": "nonpayable",
      "type": "function"
    },
    {
      "constant": true,
      "inputs": [],
      "name": "getCandidateCount",
      "outputs": [
        {
          "internalType": "uint256",
          "name": "",
          "type": "uint256"
        }
      ],
      "payable": false,
      "stateMutability": "view",
      "type": "function"
    }
  ],
  "bytecode": "0x60806040523480156200001157600080fd5b5033600460006101000a81548173ffffffffffffffffffffffffffffffffffffffff021916908373ffffffffffffffffffffffffffffffffffffffff1602179055506001600560003373ffffffffffffffffffffffffffffffffffffffff1673ffffffffffffffffffffffffffffffffffffffff16815260200190815260200160002060006101000a81548160ff021916908315150217905550620000bd60016200024d60201b60201c565b7fc475c26aa25ed8e85a7faa790e5f63b5d7ee1025f12821f4c9bfddd36ab4d11260405160405180910390a16200012f6040518060400160405280600681526020017f5368616d696400000000000000000000000000000000000000000000000000008152506200027760201b60201c565b620001756040518060400160405280601381526020017f59616b6869796179657661204d61727a68616e000000000000000000000000008152506200027760201b60201c565b620001bb6040518060400160405280601281526020017f416b796c62656b204d656e6469626179657600000000000000000000000000008152506200027760201b60201c565b620002016040518060400160405280601181526020017f4164796c62656b6f7661205a68616e656c0000000000000000000000000000008152506200027760201b60201c565b620002476040518060400160405280600e81526020017f4d75737461666120416b65726b650000000000000000000000000000000000008152506200027760201b60201c565b6200062a565b8015620002665760016003541760038190555062000274565b600119600354166003819055505b50565b6000815190506000811180156200028f575060208111155b6040518060400160405280602081526020017f496e76616c6964206e616d65206c656e6774682028302d333220636861727329815250906200036f576040517f08c379a00000000000000000000000000000000000000000000000000000000081526004018080602001828103825283818151815260200191508051906020019080838360005b838110156200033357808201518184015260208101905062000316565b50505050905090810190601f168015620003615780820380516001836020036101000a031916815260200191505b509250505060405180910390fd5b50600254600160025401116040518060400160405280601a81526020017f4e656761746976652076616c7565206e6f7420616c6c6f776564000000000000815250906200045a576040517f08c379a00000000000000000000000000000000000000000000000000000000081526004018080602001828103825283818151815260200191508051906020019080838360005b838110156200041e57808201518184015260208101905062000401565b50505050905090810190601f1680156200044c5780820380516001836020036101000a031916815260200191505b509250505060405180910390fd5b506002600081548092919060010191905055506040518060600160405280600254815260200183815260200160008152506000806002548152602001908152602001600020600082015181600001556020820151816001019080519060200190620004c79291906200057b565b50604082015181600201559050506002547fe83b2a43e7e82d975c8a0a6d2f045153c869e111136a34d1889ab7b598e396a3836040518080602001828103825283818151815260200191508051906020019080838360005b838110156200053c5780820151818401526020810190506200051f565b50505050905090810190601f1680156200056a5780820380516001836020036101000a031916815260200191505b509250505060405180910390a25050565b828054600181600116156101000203166002900490600052602060002090601f016020900481019282601f10620005be57805160ff1916838001178555620005ef565b82800160010185558215620005ef579182015b82811115620005ee578251825591602001919060010190620005d1565b5b509050620005fe919062000602565b5090565b6200062791905b808211156200062357600081600090555060010162000609565b5090565b90565b612105806200063a6000396000f3fe608060405234801561001057600080fd5b50600436106100cf5760003560e01c806338db6dd31161008c578063a3ec138d11610066578063a3ec138d1461030f578063b532e4cb1461036b578063e8f30523146103af578063f851a440146103b9576100cf565b806338db6dd31461027d57806359f78468146102c1578063869d785f146102cb576100cf565b80630121b93f146100d457806309e9d7e21461010257806314d0f1ba146101305780632d35a8a21461018c57806330a56347146101aa5780633477ee2e146101c8575b600080fd5b610100600480360360208110156100ea57600080fd5b8101908080359060200190929190505050610403565b005b61012e6004803603602081101561011857600080fd5b8101908080359060200190929190505050610a5c565b005b6101726004803603602081101561014657600080fd5b81019080803573ffffffffffffffffffffffffffffffffffffffff169060200190929190505050610df0565b604051808215151515815260200191505060405180910390f35b610194610e10565b6040518082815260200191505060405180910390f35b6101b2610e16565b6040518082815260200191505060405180910390f35b6101f4600480360360208110156101de57600080fd5b8101908080359060200190929190505050610e7d565b6040518084815260200180602001838152602001828103825284818151815260200191508051906020019080838360005b83811015610240578082015181840152602081019050610225565b50505050905090810190601f16801561026d5780820380516001836020036101000a031916815260200191505b5094505050505060405180910390f35b6102bf6004803603602081101561029357600080fd5b81019080803573ffffffffffffffffffffffffffffffffffffffff169060200190929190505050610f3f565b005b6102c96112d6565b005b61030d600480360360208110156102e157600080fd5b81019080803573ffffffffffffffffffffffffffffffffffffffff169060200190929190505050611521565b005b6103516004803603602081101561032557600080fd5b81019080803573ffffffffffffffffffffffffffffffffffffffff169060200190929190505050611853565b604051808215151515815260200191505060405180910390f35b6103ad6004803603602081101561038157600080fd5b81019080803573ffffffffffffffffffffffffffffffffffffffff169060200190929190505050611873565b005b6103b7611ba4565b005b6103c1611e81565b604051808273ffffffffffffffffffffffffffffffffffffffff1673ffffffffffffffffffffffffffffffffffffffff16815260200191505060405180910390f35b61040b611ea7565b1561047e576040517f08c379a00000000000000000000000000000000000000000000000000000000081526004018080602001828103825260178152602001807f5265656e7472616e742063616c6c20646574656374656400000000000000000081525060200191505060405180910390fd5b6104886001611eb6565b80610491611ede565b6040518060400160405280601681526020017f456c656374696f6e206973206e6f7420616374697665000000000000000000008152509061056d576040517f08c379a00000000000000000000000000000000000000000000000000000000081526004018080602001828103825283818151815260200191508051906020019080838360005b83811015610532578082015181840152602081019050610517565b50505050905090810190601f16801561055f5780820380516001836020036101000a031916815260200191505b509250505060405180910390fd5b50600160003373ffffffffffffffffffffffffffffffffffffffff1673ffffffffffffffffffffffffffffffffffffffff16815260200190815260200160002060009054906101000a900460ff16156040518060400160405280601481526020017f566f74657220616c72656164792065786973747300000000000000000000000081525090610698576040517f08c379a00000000000000000000000000000000000000000000000000000000081526004018080602001828103825283818151815260200191508051906020019080838360005b8381101561065d578082015181840152602081019050610642565b50505050905090810190601f16801561068a5780820380516001836020036101000a031916815260200191505b509250505060405180910390fd5b506000811180156106ab57506002548111155b6040518060400160405280601481526020017f496e76616c69642063616e64696461746520494400000000000000000000000081525090610787576040517f08c379a00000000000000000000000000000000000000000000000000000000081526004018080602001828103825283818151815260200191508051906020019080838360005b8381101561074c578082015181840152602081019050610731565b50505050905090810190601f1680156107795780820380516001836020036101000a031916815260200191505b509250505060405180910390fd5b5060008060008381526020019081526020016000206000015414156040518060400160405280601981526020017f43616e64696461746520616c72656164792072656d6f766564000000000000008152509061087e576040517f08c379a00000000000000000000000000000000000000000000000000000000081526004018080602001828103825283818151815260200191508051906020019080838360005b83811015610843578082015181840152602081019050610828565b50505050905090810190601f1680156108705780820380516001836020036101000a031916815260200191505b509250505060405180910390fd5b5060018060003373ffffffffffffffffffffffffffffffffffffffff1673ffffffffffffffffffffffffffffffffffffffff16815260200190815260200160002060006101000a81548160ff02191690831515021790555060006108f8600080858152602001908152602001600020600201546001611eed565b90506000808481526020019081526020016000206002015481116040518060400160405280601281526020017f496e76616c696420766f746520636f756e740000000000000000000000000000815250906109ee576040517f08c379a00000000000000000000000000000000000000000000000000000000081526004018080602001828103825283818151815260200191508051906020019080838360005b838110156109b3578082015181840152602081019050610998565b50505050905090810190601f1680156109e05780820380516001836020036101000a031916815260200191505b509250505060405180910390fd5b5080600080858152602001908152602001600020600201819055503373ffffffffffffffffffffffffffffffffffffffff16837fef0a8c30b864cd88d58d772c577afd36560b80a69c4eea26d684aa68cca2b1e560405160405180910390a35050610a596000611eb6565b50565b600560003373ffffffffffffffffffffffffffffffffffffffff1673ffffffffffffffffffffffffffffffffffffffff16815260200190815260200160002060009054906101000a900460ff166040518060400160405280601381526020017f556e617574686f72697a6564206163636573730000000000000000000000000081525090610b85576040517f08c379a00000000000000000000000000000000000000000000000000000000081526004018080602001828103825283818151815260200191508051906020019080838360005b83811015610b4a578082015181840152602081019050610b2f565b50505050905090810190601f168015610b775780820380516001836020036101000a031916815260200191505b509250505060405180910390fd5b50600081118015610b9857506002548111155b6040518060400160405280601481526020017f496e76616c69642063616e64696461746520494400000000000000000000000081525090610c74576040517f08c379a00000000000000000000000000000000000000000000000000000000081526004018080602001828103825283818151815260200191508051906020019080838360005b83811015610c39578082015181840152602081019050610c1e565b50505050905090810190601f168015610c665780820380516001836020036101000a031916815260200191505b509250505060405180910390fd5b5060008060008381526020019081526020016000206000015414156040518060400160405280601981526020017f43616e64696461746520616c72656164792072656d6f7665640000000000000081525090610d6b576040517f08c379a00000000000000000000000000000000000000000000000000000000081526004018080602001828103825283818151815260200191508051906020019080838360005b83811015610d30578082015181840152602081019050610d15565b50505050905090810190601f168015610d5d5780820380516001836020036101000a031916815260200191505b509250505060405180910390fd5b50604051806020016040528060008152506000808381526020019081526020016000206001019080519060200190610da4929190612008565b50600080600083815260200190815260200160002060020181905550807f294c5a9bc8a39e6e06502bc8da429980f6c7b0990d75b682c12cb8705e3ace8560405160405180910390a250565b60056020528060005260406000206000915054906101000a900460ff1681565b60025481565b600080600090506000600190505b6002548111610e755760008060008381526020019081526020016000206001018054600181600116156101000203166002900490501115610e685781806001019250505b8080600101915050610e24565b508091505090565b6000602052806000526040600020600091509050806000015490806001018054600181600116156101000203166002900480601f016020809104026020016040519081016040528092919081815260200182805460018160011615610100020316600290048015610f2f5780601f10610f0457610100808354040283529160200191610f2f565b820191906000526020600020905b815481529060010190602001808311610f1257829003601f168201915b5050505050908060020154905083565b600560003373ffffffffffffffffffffffffffffffffffffffff1673ffffffffffffffffffffffffffffffffffffffff16815260200190815260200160002060009054906101000a900460ff166040518060400160405280601381526020017f556e617574686f72697a6564206163636573730000000000000000000000000081525090611068576040517f08c379a00000000000000000000000000000000000000000000000000000000081526004018080602001828103825283818151815260200191508051906020019080838360005b8381101561102d578082015181840152602081019050611012565b50505050905090810190601f16801561105a5780820380516001836020036101000a031916815260200191505b509250505060405180910390fd5b5080600073ffffffffffffffffffffffffffffffffffffffff168173ffffffffffffffffffffffffffffffffffffffff16141561110d576040517f08c379a000000000000000000000000000000000000000000000000000000000815260040180806020018281038252600f8152602001807f496e76616c69642061646472657373000000000000000000000000000000000081525060200191505060405180910390fd5b600160008373ffffffffffffffffffffffffffffffffffffffff1673ffffffffffffffffffffffffffffffffffffffff16815260200190815260200160002060009054906101000a900460ff16156040518060400160405280601481526020017f566f74657220616c72656164792065786973747300000000000000000000000081525090611237576040517f08c379a00000000000000000000000000000000000000000000000000000000081526004018080602001828103825283818151815260200191508051906020019080838360005b838110156111fc5780820151818401526020810190506111e1565b50505050905090810190601f1680156112295780820380516001836020036101000a031916815260200191505b509250505060405180910390fd5b5060018060008473ffffffffffffffffffffffffffffffffffffffff1673ffffffffffffffffffffffffffffffffffffffff16815260200190815260200160002060006101000a81548160ff0219169083151502179055508173ffffffffffffffffffffffffffffffffffffffff167fb6be2187d059cc2a55fe29e0e503b566e1e0f8c8780096e185429350acffd3dd60405160405180910390a25050565b600460009054906101000a900473ffffffffffffffffffffffffffffffffffffffff1673ffffffffffffffffffffffffffffffffffffffff163373ffffffffffffffffffffffffffffffffffffffff16146040518060400160405280601381526020017f556e617574686f72697a6564206163636573730000000000000000000000000081525090611403576040517f08c379a00000000000000000000000000000000000000000000000000000000081526004018080602001828103825283818151815260200191508051906020019080838360005b838110156113c85780820151818401526020810190506113ad565b50505050905090810190601f1680156113f55780820380516001836020036101000a031916815260200191505b509250505060405180910390fd5b5061140c611ede565b6040518060400160405280601681526020017f456c656374696f6e206973206e6f742061637469766500000000000000000000815250906114e8576040517f08c379a00000000000000000000000000000000000000000000000000000000081526004018080602001828103825283818151815260200191508051906020019080838360005b838110156114ad578082015181840152602081019050611492565b50505050905090810190601f1680156114da5780820380516001836020036101000a031916815260200191505b509250505060405180910390fd5b506114f36000611fe0565b7f66ec723071e4bb646f7b35d31bc2dee8510979bd8c180edd0690d4f5e802f1e460405160405180910390a1565b600460009054906101000a900473ffffffffffffffffffffffffffffffffffffffff1673ffffffffffffffffffffffffffffffffffffffff163373ffffffffffffffffffffffffffffffffffffffff16146040518060400160405280601381526020017f556e617574686f72697a656420616363657373000000000000000000000000008152509061164e576040517f08c379a00000000000000000000000000000000000000000000000000000000081526004018080602001828103825283818151815260200191508051906020019080838360005b838110156116135780820151818401526020810190506115f8565b50505050905090810190601f1680156116405780820380516001836020036101000a031916815260200191505b509250505060405180910390fd5b50600560008273ffffffffffffffffffffffffffffffffffffffff1673ffffffffffffffffffffffffffffffffffffffff16815260200190815260200160002060009054906101000a900460ff1661170e576040517f08c379a000000000000000000000000000000000000000000000000000000000815260040180806020018281038252600f8152602001807f4e6f742061206d6f64657261746f72000000000000000000000000000000000081525060200191505060405180910390fd5b600460009054906101000a900473ffffffffffffffffffffffffffffffffffffffff1673ffffffffffffffffffffffffffffffffffffffff168173ffffffffffffffffffffffffffffffffffffffff1614156117b5576040517f08c379a00000000000000000000000000000000000000000000000000000000081526004018080602001828103825260238152602001806120ae6023913960400191505060405180910390fd5b6000600560008373ffffffffffffffffffffffffffffffffffffffff1673ffffffffffffffffffffffffffffffffffffffff16815260200190815260200160002060006101000a81548160ff0219169083151502179055508073ffffffffffffffffffffffffffffffffffffffff167f7a9f1e23d5426b34819d173153d59084cc3578d5a129b80bb27df683ac6b227860405160405180910390a250565b60016020528060005260406000206000915054906101000a900460ff1681565b600460009054906101000a900473ffffffffffffffffffffffffffffffffffffffff1673ffffffffffffffffffffffffffffffffffffffff163373ffffffffffffffffffffffffffffffffffffffff16146040518060400160405280601381526020017f556e617574686f72697a65642061636365737300000000000000000000000000815250906119a0576040517f08c379a00000000000000000000000000000000000000000000000000000000081526004018080602001828103825283818151815260200191508051906020019080838360005b8381101561196557808201518184015260208101905061194a565b50505050905090810190601f1680156119925780820380516001836020036101000a031916815260200191505b509250505060405180910390fd5b5080600073ffffffffffffffffffffffffffffffffffffffff168173ffffffffffffffffffffffffffffffffffffffff161415611a45576040517f08c379a000000000000000000000000000000000000000000000000000000000815260040180806020018281038252600f8152602001807f496e76616c69642061646472657373000000000000000000000000000000000081525060200191505060405180910390fd5b600560008373ffffffffffffffffffffffffffffffffffffffff1673ffffffffffffffffffffffffffffffffffffffff16815260200190815260200160002060009054906101000a900460ff1615611b05576040517f08c379a00000000000000000000000000000000000000000000000000000000081526004018080602001828103825260138152602001807f416c72656164792061206d6f64657261746f720000000000000000000000000081525060200191505060405180910390fd5b6001600560008473ffffffffffffffffffffffffffffffffffffffff1673ffffffffffffffffffffffffffffffffffffffff16815260200190815260200160002060006101000a81548160ff0219169083151502179055508173ffffffffffffffffffffffffffffffffffffffff167fd378ad41c1a753fd1ba9ec0fcd7970526c175b68545b4a02d6d15e7606fe359660405160405180910390a25050565b600460009054906101000a900473ffffffffffffffffffffffffffffffffffffffff1673ffffffffffffffffffffffffffffffffffffffff163373ffffffffffffffffffffffffffffffffffffffff16146040518060400160405280601381526020017f556e617574686f72697a6564206163636573730000000000000000000000000081525090611cd1576040517f08c379a00000000000000000000000000000000000000000000000000000000081526004018080602001828103825283818151815260200191508051906020019080838360005b83811015611c96578082015181840152602081019050611c7b565b50505050905090810190601f168015611cc35780820380516001836020036101000a031916815260200191505b509250505060405180910390fd5b50611cda611ede565b156040518060400160405280601a81526020017f456c656374696f6e20697320616c72656164792061637469766500000000000081525090611db7576040517f08c379a00000000000000000000000000000000000000000000000000000000081526004018080602001828103825283818151815260200191508051906020019080838360005b83811015611d7c578082015181840152602081019050611d61565b50505050905090810190601f168015611da95780820380516001836020036101000a031916815260200191505b509250505060405180910390fd5b506000600190505b6002548111611e48576000806000838152602001908152602001600020600201819055506000600160008373ffffffffffffffffffffffffffffffffffffffff1673ffffffffffffffffffffffffffffffffffffffff16815260200190815260200160002060006101000a81548160ff0219169083151502179055508080600101915050611dbf565b50611e536001611fe0565b7f8d1085cd9eceaab0b77fd20c66dea55df08e5ef2d52859c2cb4a1e16ba9476c060405160405180910390a1565b600460009054906101000a900473ffffffffffffffffffffffffffffffffffffffff1681565b60006002806003541614905090565b8015611ecd57600260035417600381905550611edb565b600219600354166003819055505b50565b60006001806003541614905090565b6000808284019050838110156040518060400160405280601a81526020017f4e656761746976652076616c7565206e6f7420616c6c6f77656400000000000081525090611fd5576040517f08c379a00000000000000000000000000000000000000000000000000000000081526004018080602001828103825283818151815260200191508051906020019080838360005b83811015611f9a578082015181840152602081019050611f7f565b50505050905090810190601f168015611fc75780820380516001836020036101000a031916815260200191505b509250505060405180910390fd5b508091505092915050565b8015611ff757600160035417600381905550612005565b600119600354166003819055505b50565b828054600181600116156101000203166002900490600052602060002090601f016020900481019282601f1061204957805160ff1916838001178555612077565b82800160010185558215612077579182015b8281111561207657825182559160200191906001019061205b565b5b5090506120849190612088565b5090565b6120aa91905b808211156120a657600081600090555060010161208e565b5090565b9056fe43616e6e6f742072656d6f76652061646d696e2066726f6d206d6f64657261746f7273a265627a7a72315820b766ba58ee089068e3f4317e8ad735f7436cd841c9a036b4d70f08c6659c493064736f6c63430005100032",
  "source": "pragma solidity >=0.4.22 <0.6.0;\r\n\r\ncontract Election {\r\n    struct Candidate {\r\n        uint id;\r\n        string name;\r\n        uint voteCount;\r\n    }\r\n\r\n    mapping(uint => Candidate) public candidates;\r\n    mapping(address => bool) public voters;\r\n    uint public candidatesCount;\r\n    uint256 private flags; // electionActive  locked   \r\n    address public admin;\r\n    mapping(address => bool) public moderators;\r\n\r\n\r\n    event CandidateAdded(uint indexed candidateId, string name);\r\n    event CandidateRemoved(uint indexed candidateId);\r\n    event VotedEvent(uint indexed candidateId, address indexed voter);\r\n    event VoterRegistered(address indexed voter);\r\n    event ElectionStarted();\r\n    event ElectionEnded();\r\n    event ElectionReset();\r\n    event ModeratorAdded(address indexed moderator);\r\n    event ModeratorRemoved(address indexed moderator);\r\n\r\n\r\n    string constant INVALID_CANDIDATE_ID = \"Invalid candidate ID\";\r\n    string constant INVALID_NAME_LENGTH = \"Invalid name length (0-32 chars)\";\r\n    string constant NEGATIVE_VALUE = \"Negative value not allowed\";\r\n    string constant DUPLICATE_VOTER = \"Voter already exists\";\r\n    string constant UNAUTHORIZED = \"Unauthorized access\";\r\n    string constant ELECTION_NOT_ACTIVE = \"Election is not active\";\r\n    string constant ELECTION_ALREADY_ACTIVE = \"Election is already active\";\r\n    string constant CANDIDATE_REMOVED = \"Candidate already removed\";\r\n    string constant ADMIN_PROTECTED = \"Cannot remove admin\";\r\n    string constant INVALID_VOTE = \"Invalid vote count\";\r\n\r\n\r\n    uint256 private constant ELECTION_ACTIVE_FLAG = 1;\r\n    uint256 private constant LOCKED_FLAG = 2;\r\n\r\n    modifier onlyAdmin() {\r\n        require(msg.sender == admin, UNAUTHORIZED);\r\n        _;\r\n    }\r\n    \r\n    modifier onlyModerator() {\r\n        require(moderators[msg.sender], UNAUTHORIZED);\r\n        _;\r\n    }\r\n\r\n\r\n    modifier noReentrant() {\r\n        require(!locked(), \"Reentrant call detected\");\r\n        setLocked(true);\r\n        _;\r\n        setLocked(false);\r\n    }\r\n    \r\n\r\n    modifier safeOperations(uint a, uint b) {\r\n        require(a + b >= a, \"Overflow detected\");\r\n        _;\r\n    }\r\n    \r\n   \r\n    modifier validAddress(address _address) {\r\n        require(_address != address(0), \"Invalid address\");\r\n        _;\r\n    }\r\n\r\n    modifier validVoter(uint _candidateId) {\r\n        require(isElectionActive(), ELECTION_NOT_ACTIVE);\r\n        require(!voters[msg.sender], DUPLICATE_VOTER);\r\n        require(_candidateId > 0 && _candidateId <= candidatesCount, INVALID_CANDIDATE_ID);\r\n        require(candidates[_candidateId].id != 0, CANDIDATE_REMOVED);\r\n        _;\r\n    }\r\n\r\n    constructor() public {\r\n        admin = msg.sender;\r\n        moderators[msg.sender] = true;\r\n        setElectionActive(true);\r\n        emit ElectionStarted();\r\n        addCandidate(\"Shamid\");\r\n        addCandidate(\"Yakhiyayeva Marzhan\");\r\n        addCandidate(\"Akylbek Mendibayev\");\r\n        addCandidate(\"Adylbekova Zhanel\");\r\n        addCandidate(\"Mustafa Akerke\");\r\n    }\r\n\r\n    function addCandidate(string memory _name) private {\r\n        uint256 nameLength = bytes(_name).length;\r\n        require(nameLength > 0 && nameLength <= 32, INVALID_NAME_LENGTH);\r\n        require(candidatesCount + 1 > candidatesCount, NEGATIVE_VALUE);\r\n        \r\n        candidatesCount++;\r\n        candidates[candidatesCount] = Candidate(candidatesCount, _name, 0);\r\n        emit CandidateAdded(candidatesCount, _name);\r\n    }\r\n\r\n    function removeCandidate(uint _candidateId) public onlyModerator {\r\n        require(_candidateId > 0 && _candidateId <= candidatesCount, INVALID_CANDIDATE_ID);\r\n        require(candidates[_candidateId].id != 0, CANDIDATE_REMOVED);\r\n        \r\n        candidates[_candidateId].name = \"\";\r\n        candidates[_candidateId].voteCount = 0;\r\n        \r\n        emit CandidateRemoved(_candidateId);\r\n    }\r\n\r\n    function registerVoter(address _voter) public onlyModerator validAddress(_voter) {\r\n        require(!voters[_voter], DUPLICATE_VOTER);\r\n        voters[_voter] = true;\r\n        emit VoterRegistered(_voter);\r\n    }\r\n\r\n    function vote(uint _candidateId) public noReentrant validVoter(_candidateId) {\r\n        voters[msg.sender] = true;\r\n        uint256 newVoteCount = safeAdd(candidates[_candidateId].voteCount, 1);\r\n        require(newVoteCount > candidates[_candidateId].voteCount, INVALID_VOTE);\r\n        candidates[_candidateId].voteCount = newVoteCount;\r\n\r\n        emit VotedEvent(_candidateId, msg.sender);\r\n    }\r\n\r\n    function endElection() public onlyAdmin {\r\n        require(isElectionActive(), ELECTION_NOT_ACTIVE);\r\n        setElectionActive(false);\r\n        emit ElectionEnded();\r\n    }\r\n\r\n    function resetElection() public onlyAdmin {\r\n        require(!isElectionActive(), ELECTION_ALREADY_ACTIVE);\r\n        \r\n        for (uint i = 1; i <= candidatesCount; i++) {\r\n            candidates[i].voteCount = 0;\r\n            voters[address(i)] = false;\r\n        }\r\n        \r\n        setElectionActive(true);\r\n        emit ElectionReset();\r\n    }\r\n\r\n    function addModerator(address _moderator) public onlyAdmin validAddress(_moderator) {\r\n        require(!moderators[_moderator], \"Already a moderator\");\r\n        moderators[_moderator] = true;\r\n        emit ModeratorAdded(_moderator);\r\n    }\r\n\r\n    function removeModerator(address _moderator) public onlyAdmin {\r\n        require(moderators[_moderator], \"Not a moderator\");\r\n        require(_moderator != admin, \"Cannot remove admin from moderators\");\r\n        moderators[_moderator] = false;\r\n        emit ModeratorRemoved(_moderator);\r\n    }\r\n\r\n    function safeAdd(uint a, uint b) internal pure returns (uint) {\r\n        uint c = a + b;\r\n        require(c >= a, NEGATIVE_VALUE);\r\n        return c;\r\n    }\r\n\r\n    function isElectionActive() internal view returns (bool) {\r\n        return (flags & ELECTION_ACTIVE_FLAG) == ELECTION_ACTIVE_FLAG;\r\n    }\r\n\r\n    function setElectionActive(bool _active) internal {\r\n        if(_active) {\r\n            flags = flags | ELECTION_ACTIVE_FLAG;\r\n        } else {\r\n            flags = flags & ~ELECTION_ACTIVE_FLAG;\r\n        }\r\n    }\r\n\r\n    function locked() internal view returns (bool) {\r\n        return (flags & LOCKED_FLAG) == LOCKED_FLAG;\r\n    }\r\n\r\n    function setLocked(bool _locked) internal {\r\n        if(_locked) {\r\n            flags = flags | LOCKED_FLAG;\r\n        } else {\r\n            flags = flags & ~LOCKED_FLAG;\r\n        }\r\n    }\r\n\r\n    function getCandidateCount() public view returns (uint) {\r\n        uint activeCount = 0;\r\n        for (uint i = 1; i <= candidatesCount; i++) {\r\n            if (bytes(candidates[i].name).length > 0) {\r\n                activeCount++;\r\n            }\r\n        }\r\n        return activeCount;\r\n    }\r\n}\r\n",
  "sourcePath": "C:\\Users\\Akiller\\Desktop\\bloock\\blockchain-voting\\DeVoting\\contracts\\Election.sol",
  "compiler": {
    "name": "solc",
    "version": "0.5.16+commit.9c3226ce.Emscripten.clang"
  },
  "schemaVersion": "3.4.16",
  "updatedAt": "2025-02-13T08:33:56.416Z",
  "networkType": "ethereum",
  "devdoc": {
    "methods": {}
  },
  "userdoc": {
    "methods": {}
  }
}